:100000000C945D000C9485000C9485000C94850084
:100010000C9485000C9485000C9485000C9485004C
:100020000C9485000C9447040C9485000C94850076
:100030000C9485000C9485000C9485000C9485002C
:100040000C94FD030C9485000C94CB030C94A50335
:100050000C9485000C9485000C9485000C9485000C
:100060000C9485000C9485000000000024002700FB
:100070002A0000000000250028002B0004040404CE
:100080000404040402020202020203030303030342
:10009000010204081020408001020408102001021F
:1000A00004081020000000080002010000030407FB
:1000B00000000000000000000F0511241FBECFEF5C
:1000C000D8E0DEBFCDBF11E0A0E0B1E0ECEDF4E19F
:1000D00002C005900D92A23AB107D9F722E0A2EA38
:1000E000B1E001C01D92A336B207E1F710E0CDE503
:1000F000D0E004C02197FE010E94D807CC35D1077B
:10010000C9F70E9443050C946C0A0C940000E8EABD
:10011000F0E02491E4E9F0E09491E0E8F0E0E4918B
:10012000EE2309F43BC0222339F1233091F038F457
:100130002130A9F0223001F524B52F7D12C02730DF
:1001400091F02830A1F02430B9F4209180002F7D67
:1001500003C0209180002F77209380000DC024B52C
:100160002F7724BD09C02091B0002F7703C02091C4
:10017000B0002F7D2093B000F0E0EE0FFF1FEE588F
:10018000FF4FA591B4912FB7F894EC91811103C062
:1001900090959E2301C09E2B9C932FBF08952FB74F
:1001A000F8948091B0019091B101A091B201B09109
:1001B000B3012FBF8093C9019093CA01A093CB01D3
:1001C000B093CC01E091C101F091C2010680F781AA
:1001D000E02D81EC91E0099597FF26C02FB7F894A8
:1001E0008091B0019091B101A091B201B091B301A1
:1001F0002FBF4091C9015091CA016091CB0170910C
:10020000CC01841B950BA60BB70B4091C5015091F7
:10021000C6016091C7017091C80184179507A607B0
:10022000B70780F28FEF9FEF0895CF92DF92EF92A2
:10023000FF920F931F93CF93DF936C017A018B0191
:10024000C0E0D0E0CE15DF0589F0D8016D918D01B9
:10025000D601ED91FC910190F081E02DC601099548
:10026000892B11F47E0102C02196ECCFC701DF91EA
:10027000CF911F910F91FF90EF90DF90CF90089555
:10028000FC01918D828D981761F0828DDF01A80F9E
:10029000B11D5D968C91928D9F5F9F73928F90E0C0
:1002A00008958FEF9FEF0895FC01918D828D98172F
:1002B00031F0828DE80FF11D858D90E008958FEF6C
:1002C0009FEF0895FC01918D228D892F90E0805C35
:1002D0009F4F821B91098F739927089581EC91E0BC
:1002E0000E94620121E0892B09F420E0822F089509
:1002F000FC01848DDF01A80FB11DA35ABF4F2C91C3
:10030000848D90E001968F739927848FA689B78991
:100310002C93A089B1898C9180648C93938D848D6A
:10032000981306C00288F389E02D80818F7D808339
:100330000895EF92FF920F931F93CF93DF93EC01F9
:1003400081E0888F9B8D8C8D981305C0E889F98991
:10035000808185FD24C0F62E0B8D10E00F5F1F4FAE
:100360000F731127E02E8C8DE8120CC00FB607FC1E
:10037000FACFE889F989808185FFF5CFCE010E9407
:100380007801F1CF8B8DFE01E80FF11DE35AFF4F8D
:10039000F0820B8FEA89FB898081806207C0EE8939
:1003A000FF896083E889F98980818064808381E0A6
:1003B00090E0DF91CF911F910F91FF90EF90089502
:1003C000CF93DF93EC01888D8823C9F0EA89FB89FC
:1003D000808185FD05C0A889B9898C9186FD0FC0F3
:1003E0000FB607FCF5CF808185FFF2CFA889B989C8
:1003F0008C9185FFEDCFCE010E947801E7CFDF9190
:10040000CF91089580E090E0892B29F00E946E0141
:1004100081110C94000008953FB7F8948091AA01CF
:100420009091AB01A091AC01B091AD0126B5A89B14
:1004300005C02F3F19F00196A11DB11D3FBFBA2F76
:10044000A92F982F8827820F911DA11DB11DBC01D6
:10045000CD0142E0660F771F881F991F4A95D1F79B
:1004600008958F929F92AF92BF92CF92DF92EF92B8
:10047000FF926B017C010E940C024B015C01C114D4
:10048000D104E104F104F1F00E940C02DC01CB0183
:1004900088199909AA09BB09883E9340A105B105AD
:1004A00070F321E0C21AD108E108F10888EE880E45
:1004B00083E0981EA11CB11CC114D104E104F10415
:1004C00019F7DDCFFF90EF90DF90CF90BF90AF9006
:1004D0009F908F900895813339F0823341F08333B8
:1004E00049F488E090E0089584E290E0089588E27D
:1004F00090E008958FEF90E00895009769F0FC0177
:1005000001900020E9F73197AF01481B590BBC015E
:1005100081EC91E00C94150180E090E008950E9438
:10052000D509FC0180819181009711F00C94F909A3
:1005300060E070E0CB0108950F931F93CF93DF939A
:10054000EC0188819981009729F02A813B81261747
:10055000370788F48B016F5F7F4F0E940B0900976C
:1005600061F0998388831B830A832C813D81232B2F
:1005700011F4FC01108281E001C080E0DF91CF9195
:100580001F910F910895EF92FF920F931F93CF93B6
:10059000DF93EC01198218821B821A821D821C8251
:1005A0006115710549F18B01FB0101900020E9F70C
:1005B00031977F01E61AF70AB7010E949C02288151
:1005C000398181110DC02115310519F0C9010E9431
:1005D0007308198218821D821C821B821A820CC029
:1005E000FD82EC82B801C901DF91CF911F910F917B
:1005F000FF90EF900C94E309DF91CF911F910F9141
:10060000FF90EF9008958F929F92AF92BF92CF92FA
:10061000DF92EF92FF920F931F93CF93DF93CDB7AB
:10062000DEB7A9970FB6F894DEBF0FBECDBF2AA3E1
:100630003BA34CA35DA36EA37FA388A799A77E01CC
:1006400082E2E80EF11C87018AE0882E912CA12C11
:10065000B12C89A590E098012E193F092817390778
:1006600014F5F80181918F01282F30E040E050E02F
:1006700019A2CE0181966C01CA01B901A5019401AC
:100680000E94B607605DF60162936F012115310586
:100690004105510589F7CF010E947D028DE991E066
:1006A0000E947D02D6CF8FE991E00E947D02A9963B
:1006B0000FB6F894DEBF0FBECDBFDF91CF911F9173
:1006C0000F91FF90EF90DF90CF90BF90AF909F90F1
:1006D0008F90089590915E02E7E0F1E08085892790
:1006E000F894209106012087918782877894EFE023
:1006F000F1E020813181428153816481758186815D
:1007000097810C94030381E08093A8012091070155
:10071000309108014091090150910A0160910B014B
:1007200070910C0180910D0190910E010C940303C6
:100730008091B6010E946B02E7E0F1E0808390E8CF
:100740009183805882830C9483031F920F920FB67B
:100750000F9211242F933F934F935F936F937F9347
:100760008F939F93AF93BF93EF93FF9381EC91E0AF
:100770000E947801FF91EF91BF91AF919F918F916E
:100780007F916F915F914F913F912F910F900FBE8D
:100790000F901F9018951F920F920FB60F92112471
:1007A0002F938F939F93EF93FF93E091D101F0915B
:1007B000D2018081E091D701F091D80182FD12C071
:1007C00090818091DA018F5F8F732091DB01821716
:1007D00051F0E091DA01F0E0EF53FE4F958F8093F6
:1007E000DA0101C08081FF91EF919F918F912F914C
:1007F0000F900FBE0F901F9018951F920F920FB67B
:100800000F9211242F933F938F939F93AF93BF9396
:100810008091B0019091B101A091B201B091B3016A
:100820003091A90123E0230F2D3720F40196A11D5B
:10083000B11D05C026E8230F0296A11DB11D20930E
:10084000A9018093B0019093B101A093B201B0933C
:10085000B3018091AA019091AB01A091AC01B0913C
:10086000AD010196A11DB11D8093AA019093AB012A
:10087000A093AC01B093AD01BF91AF919F918F91C7
:100880003F912F910F900FBE0F901F9018951F92C0
:100890000F920FB60F9211242F933F934F935F93B4
:1008A0006F937F938F939F93AF93BF93EF93FF9338
:1008B0008091A701882369F081E00E94870010924F
:1008C000A7019091B20080910401890F8093B2003A
:1008D00095C080E00E94870091E09093A7018091ED
:1008E000A6018130F1F018F08230C1F174C090930C
:1008F000A5018091030181508093030181116BC098
:100900009093A6018091A801882331F010920201F2
:10091000109201011092A8011092A4011092A3015B
:100920005AC01092A50182E08093A60180E88093CE
:100930000001E0910101F091020143E0EE0FFF1F81
:100940004A95E1F78091A3019091A401E80FF91F66
:10095000E95FFE4F80818093A2013DC0809100013C
:100960002091A201282319F09093A50102C01092B2
:10097000A50190E09595879580930001892B59F505
:100980008091A3019091A40101969093A40180937A
:10099000A3014091010150910201FA0123E0EE0F01
:1009A000FF1F2A95E1F7E95FFE4F278130E08217AC
:1009B000930774F01092A60180E180930301452B08
:1009C00051F481E090E0909302018093010103C013
:1009D00081E08093A6018091A501882339F0809160
:1009E000B20083578093B2008DE806C08091B200B8
:1009F000855E8093B2008BE180930401FF91EF91BB
:100A0000BF91AF919F918F917F916F915F914F9126
:100A10003F912F910F900FBE0F901F901895E1EC12
:100A2000F1E01382128288EE93E0A0E0B0E08483CC
:100A30009583A683B78381E991E09183808385ECD8
:100A400090E09587848784EC90E09787868780EC98
:100A500090E0918B808B81EC90E0938B828B82EC89
:100A600090E0958B848B86EC90E0978B868B118E33
:100A7000128E138E148EE7E0F1E084E2808780917D
:100A80005E0281870895CF93DF93CDB7DEB72F97AE
:100A90000FB6F894DEBF0FBECDBF789484B58260E8
:100AA00084BD84B5816084BD85B5826085BD85B512
:100AB000816085BD80916E00816080936E00109290
:100AC000810080918100826080938100809181000B
:100AD000816080938100809180008160809380009C
:100AE0008091B10084608093B1008091B0008160FA
:100AF0008093B00080917A00846080937A00809126
:100B00007A00826080937A0080917A00816080937D
:100B10007A0080917A00806880937A001092C100F8
:100B2000E091D101F091D20182E08083E091CD018A
:100B3000F091CE011082E091CF01F091D00180E1DF
:100B400080831092D901E091D501F091D60186E021
:100B50008083E091D301F091D40180818061808312
:100B6000E091D301F091D401808188608083E0918D
:100B7000D301F091D401808180688083E091D3011A
:100B8000F091D40180818F7D8083E4E9F0E02491AD
:100B9000E0E8F0E08491882399F090E0880F991FB5
:100BA000FC01E859FF4FA591B491FC01EE58FF4FAD
:100BB000859194918FB7F894EC91E22BEC938FBFD1
:100BC0000E946A031092B00082E08093B10081E03D
:100BD000809370008DE88093B20068EC70E080E054
:100BE00090E00E943102B1E4FB2E13E0E12E08E810
:100BF00081EC91E00E946201181619060CF0B3C155
:100C000061EA71E0CE0107960E94C3020E94CF0004
:100C1000CB84DC8497FD1AC089831A822FEFC21A15
:100C2000D20AB601CE0107960E949C02882371F376
:100C30002F8138858B859C85BE016F5F7F4F820F2A
:100C4000931F0E94E309DC86CB86E0CFC114D10458
:100C500019F41092B40112C04CE0C416D10418F07B
:100C6000ACE0CA2ED12C6F817885A60184EB91E08F
:100C70000E94EA09F601EC54FE4F10821091B40173
:100C8000163669F48091B6010E946B0280930701C9
:100C900090E9909308019827909309015DC0183658
:100CA000A9F48091B6010E946B028093070192E83B
:100CB000909308019827909309010E94830368EBA1
:100CC0007BE080E090E00E94310202C01F3619F400
:100CD0000E94980343C1123661F48091B6010E94CC
:100CE0006B0280930701009308018027809309011C
:100CF00033C01833A1F5E8EBCE2EE1E0DE2EF7E0AD
:100D0000AF2EF1E0BF2E80910E0190E095012750AB
:100D100031402817390704F5F601329780818D8715
:100D2000319680818E87F60180818F87BE01635F57
:100D30007F4FCE0101960E94C302CE0101960E9410
:100D40009102F50161935F0189819A810E94730884
:100D5000F2E0CF0ED11CD7CF0E948303FFC0123325
:100D600009F06DC08091B6018D878091B7018E87A3
:100D70008091B8018F87BE01635F7F4FCE010196DE
:100D80000E94C302CE0101960E9491024DE151E002
:100D90009A0180E090E0E0E0F0E0D901AE0FBF1FE3
:100DA0007C9176130AC0880F991F880F991F835E64
:100DB0009E4FE80FF91F21810BC03196E430F105F9
:100DC00061F701962C5F3F4F8C31910521F720E3AD
:100DD000209307013091BA0180E090E0E0E0F0E07C
:100DE000DA01AE0FBF1F7C91761318C0323751F471
:100DF000880F991F880F991F835E9E4FE80FF91F78
:100E0000828117C0373651F4880F991F880F991FB8
:100E1000835E9E4FE80FF91F83810BC03196E4304B
:100E2000F105F1F601964C5F5F4F8C319105B1F6FB
:100E300080E38093080128272093090140C01333E1
:100E400009F046C08091B6018D878091B7018E87E9
:100E50008091B8018F87BE01635F7F4FCE010196FD
:100E60000E94C302CE0101960E9491027091BA01C4
:100E70009091AF018091AE012DE131E0F90140E0A8
:100E800050E0A191A61305C090818181723709F0CD
:100E90008F5F4F5F5F4F4430510599F72C5F3F4F95
:100EA00041E02D38340751F78093AE019093AF01A4
:100EB0009093070180930801892780930901E092AC
:100EC0000E010E94830389819A810E94730846C0A3
:100ED000193349F4F0925E028091B6010E946B02D0
:100EE0008093060139C0109305018091B70160918C
:100EF000B601803271F4062E000C770B6B018FE285
:100F0000C81AD1088091B8010E946B028093060133
:100F10001BC06D878E87BE01635F7F4FCE01019638
:100F20000E94C302CE0101960E9491026B01EFEF75
:100F3000CE1ADE0A8091B9010E946B0280930601ED
:100F400089819A810E947308112311F060E601C023
:100F500060E46C0D60935E020E946A038F81988545
:100F60000E94730845CE0E94020237CEA1E21A2EDB
:100F7000AA1BBB1BFD010DC0AA1FBB1FEE1FFF1F3D
:100F8000A217B307E407F50720F0A21BB30BE40B8D
:100F9000F50B661F771F881F991F1A9469F76095D4
:100FA0007095809590959B01AC01BD01CF0108958E
:100FB000EE0FFF1F0590F491E02D0994CF93DF937E
:100FC0008230910510F482E090E0E0916102F091AE
:100FD000620220E030E0C0E0D0E0309711F14081C3
:100FE000518148175907C0F04817590761F48281A9
:100FF0009381209719F09B838A832BC09093620280
:101000008093610226C02115310519F0421753075C
:1010100018F49A01BE01DF01EF010280F381E02D97
:10102000DCCF2115310509F1281B390B243031059E
:1010300090F412968D919C9113976115710521F092
:10104000FB019383828304C09093620280936102C8
:10105000FD01329644C0FD01E20FF31F819391938D
:10106000225031092D933C933AC020915F02309178
:101070006002232B41F42091190130911A01309321
:10108000600220935F022091170130911801211511
:10109000310541F42DB73EB740911B0150911C0121
:1010A000241B350BE0915F02F0916002E217F30719
:1010B000A0F42E1B3F0B2817390778F0AC014E5FC8
:1010C0005F4F2417350748F04E0F5F1F50936002A3
:1010D00040935F028193919302C0E0E0F0E0CF0182
:1010E000DF91CF9108950F931F93CF93DF930097D4
:1010F00009F48CC0FC0132971382128200916102C4
:10110000109162020115110581F420813181820F55
:10111000931F20915F02309160022817390779F5FB
:10112000F0936002E0935F0271C0D80140E050E0AC
:10113000AE17BF0750F412962D913C911397AD0155
:101140002115310509F1D901F3CF9D01DA0133836E
:10115000228360817181860F971F8217930769F43C
:10116000EC0128813981260F371F2E5F3F4F3183D5
:1011700020838A819B8193838283452B29F4F0937A
:101180006202E093610242C01396FC93EE931297C1
:10119000ED01499159919E01240F351FE217F30784
:1011A00071F480819181840F951F029611969C9312
:1011B0008E938281938113969C938E931297E0E095
:1011C000F0E0D80112968D919C911397009719F039
:1011D000F8018C01F6CF8D919C9198012E5F3F4FC5
:1011E000820F931F20915F02309160022817390708
:1011F00069F4309729F4109262021092610202C0E1
:10120000138212821093600200935F02DF91CF91EC
:101210001F910F910895A0E0B0E0E1E1F9E00C9496
:10122000390AEC01009721F4CB010E94DE07B8C017
:10123000FC01E60FF71F9C0122503109E217F3076A
:1012400008F4ACC0D9010D911C911197061717072E
:10125000B0F00530110508F49FC0C8010497861747
:10126000970708F499C002501109061B170B019348
:1012700011936D937C93CF010E9473088DC05B0125
:10128000A01AB10A4C01800E911EA0916102B0918A
:10129000620240E050E0E12CF12C109709F44AC0C2
:1012A000A815B905D1F56D907C901197630182E086
:1012B000C80ED11CCA14DB0480F1A3014A195B09D2
:1012C0006A0182E0C80ED11C1296BC901297139648
:1012D000AC91B5E0CB16D10440F0B282A383518328
:1012E0004083D9016D937C930AC00E5F1F4FC301E9
:1012F000800F911FF90191838083EB2DFA2FE11468
:10130000F10431F0D7011396FC93EE93129744C089
:10131000F0936202E09361023FC08D919C9111971E
:101320004817590708F4AC017D0112960D90BC9145
:10133000A02DB3CF80915F0290916002881599052E
:10134000E1F446175707C8F48091170190911801EE
:10135000009741F48DB79EB740911B0150911C013D
:10136000841B950BE817F907C8F4F0936002E0932B
:101370005F02F901718360830FC0CB010E94DE0719
:101380007C01009759F0A801BE010E94DA09CE0144
:101390000E947308C70104C0CE0102C080E090E043
:1013A000CDB7DEB7EEE00C94550A81E090E0F894FA
:1013B0000C946C0AFB01DC0102C001900D924150BB
:1013C0005040D8F70895FB01DC0101900D920020F8
:1013D000E1F70895FB01DC014150504048F00190D5
:1013E0000D920020C9F701C01D9241505040E0F716
:1013F00008951F93FC0199278827BC01E894119157
:101400001032E9F3193010F01E30C8F31B3251F0DE
:101410001D3249F4689406C00E94200A610F711DB4
:10142000811D911D119110531A30B0F33EF4909527
:101430008095709561957F4F8F4F9F4F1F910895B5
:10144000592F482F372F262F660F771F881F991F78
:10145000660F771F881F991F620F731F841F951FC8
:10146000660F771F881F991F08952F923F924F9202
:101470005F926F927F928F929F92AF92BF92CF9224
:10148000DF92EF92FF920F931F93CF93DF93CDB72D
:10149000DEB7CA1BDB0B0FB6F894DEBF0FBECDBFA5
:1014A00009942A88398848885F846E847D848C8476
:1014B0009B84AA84B984C884DF80EE80FD800C817F
:1014C0001B81AA81B981CE0FD11D0FB6F894DEBF62
:0C14D0000FBECDBFED010895F894FFCFD2
:1014DC00800100108D0108FF00FF000000000300D8
:1014EC00000000000000030000630280000B83FC7E
:1014FC00FD0C83FEFF1586F8F91686FAFB1F88FC97
:10150C00FD2088FEFF298BF8F92A8BFAFB338DFC22
:10151C00FD348DFEFF3D90F8F93E90FAFB5195F8A5
:10152C00F95295FAFB5B97FCFD5C97FEFF659AF808
:10153C00F9669AFAFB6F9CFCFD709CFEFF799FF894
:10154C00F97A9FFAFB83A1FCFD84A1FEFF8DA4F820
:10155C00F98EA4FAFB97A6FCFD98A6FEFF000000EE
:10156C000099011501620140015401E00120000DB8
:02157C000A0063
:107E0000112484B714BE81FFF0D085E080938100F7
:107E100082E08093C00088E18093C10086E0809377
:107E2000C20080E18093C4008EE0C9D0259A86E02C
:107E300020E33CEF91E0309385002093840096BBD3
:107E4000B09BFECF1D9AA8958150A9F7CC24DD24C4
:107E500088248394B5E0AB2EA1E19A2EF3E0BF2EE7
:107E6000A2D0813461F49FD0082FAFD0023811F036
:107E7000013811F484E001C083E08DD089C08234E0
:107E800011F484E103C0853419F485E0A6D080C0E4
:107E9000853579F488D0E82EFF2485D0082F10E0AE
:107EA000102F00270E291F29000F111F8ED06801E7
:107EB0006FC0863521F484E090D080E0DECF843638
:107EC00009F040C070D06FD0082F6DD080E0C81688
:107ED00080E7D80618F4F601B7BEE895C0E0D1E017
:107EE00062D089930C17E1F7F0E0CF16F0E7DF06D8
:107EF00018F0F601B7BEE89568D007B600FCFDCFD4
:107F0000A601A0E0B1E02C9130E011968C91119780
:107F100090E0982F8827822B932B1296FA010C0160
:107F200087BEE89511244E5F5F4FF1E0A038BF0790
:107F300051F7F601A7BEE89507B600FCFDCF97BE46
:107F4000E89526C08437B1F42ED02DD0F82E2BD052
:107F50003CD0F601EF2C8F010F5F1F4F84911BD097
:107F6000EA94F801C1F70894C11CD11CFA94CF0C13
:107F7000D11C0EC0853739F428D08EE10CD085E9AC
:107F80000AD08FE07ACF813511F488E018D01DD067
:107F900080E101D065CF982F8091C00085FFFCCF94
:107FA0009093C60008958091C00087FFFCCF809118
:107FB000C00084FD01C0A8958091C6000895E0E648
:107FC000F0E098E1908380830895EDDF803219F02E
:107FD00088E0F5DFFFCF84E1DECF1F93182FE3DFCA
:107FE0001150E9F7F2DF1F91089580E0E8DFEE27F6
:047FF000FF270994CA
:027FFE00040479
:0400000300007E007B
:00000001FF